{
  "contractName": "Library",
  "abi": [
    {
      "inputs": [
        {
          "internalType": "string",
          "name": "_name",
          "type": "string"
        }
      ],
      "payable": false,
      "stateMutability": "nonpayable",
      "type": "constructor"
    },
    {
      "constant": true,
      "inputs": [],
      "name": "admin",
      "outputs": [
        {
          "internalType": "address",
          "name": "",
          "type": "address"
        }
      ],
      "payable": false,
      "stateMutability": "view",
      "type": "function"
    },
    {
      "constant": true,
      "inputs": [
        {
          "internalType": "uint256",
          "name": "",
          "type": "uint256"
        }
      ],
      "name": "bookInventory",
      "outputs": [
        {
          "internalType": "uint256",
          "name": "book_id",
          "type": "uint256"
        },
        {
          "internalType": "uint256",
          "name": "price",
          "type": "uint256"
        },
        {
          "internalType": "string",
          "name": "title",
          "type": "string"
        },
        {
          "internalType": "string",
          "name": "author_name",
          "type": "string"
        },
        {
          "internalType": "address payable",
          "name": "owner",
          "type": "address"
        },
        {
          "internalType": "address",
          "name": "customer",
          "type": "address"
        }
      ],
      "payable": false,
      "stateMutability": "view",
      "type": "function"
    },
    {
      "constant": true,
      "inputs": [],
      "name": "name",
      "outputs": [
        {
          "internalType": "string",
          "name": "",
          "type": "string"
        }
      ],
      "payable": false,
      "stateMutability": "view",
      "type": "function"
    },
    {
      "constant": false,
      "inputs": [
        {
          "internalType": "string",
          "name": "title",
          "type": "string"
        },
        {
          "internalType": "string",
          "name": "author_name",
          "type": "string"
        }
      ],
      "name": "newBookInInventory",
      "outputs": [
        {
          "internalType": "bool",
          "name": "",
          "type": "bool"
        }
      ],
      "payable": false,
      "stateMutability": "nonpayable",
      "type": "function"
    },
    {
      "constant": true,
      "inputs": [
        {
          "internalType": "uint256",
          "name": "i",
          "type": "uint256"
        }
      ],
      "name": "getBook",
      "outputs": [
        {
          "components": [
            {
              "internalType": "uint256",
              "name": "book_id",
              "type": "uint256"
            },
            {
              "internalType": "uint256",
              "name": "price",
              "type": "uint256"
            },
            {
              "internalType": "string",
              "name": "title",
              "type": "string"
            },
            {
              "internalType": "string",
              "name": "author_name",
              "type": "string"
            },
            {
              "internalType": "address payable",
              "name": "owner",
              "type": "address"
            },
            {
              "internalType": "address",
              "name": "customer",
              "type": "address"
            }
          ],
          "internalType": "struct Library.Book",
          "name": "",
          "type": "tuple"
        }
      ],
      "payable": false,
      "stateMutability": "view",
      "type": "function"
    },
    {
      "constant": true,
      "inputs": [],
      "name": "getInventorySize",
      "outputs": [
        {
          "internalType": "uint256",
          "name": "",
          "type": "uint256"
        }
      ],
      "payable": false,
      "stateMutability": "view",
      "type": "function"
    },
    {
      "constant": false,
      "inputs": [
        {
          "internalType": "uint256",
          "name": "book_id",
          "type": "uint256"
        }
      ],
      "name": "loanBook",
      "outputs": [
        {
          "internalType": "bool",
          "name": "",
          "type": "bool"
        }
      ],
      "payable": true,
      "stateMutability": "payable",
      "type": "function"
    },
    {
      "constant": false,
      "inputs": [
        {
          "internalType": "uint256",
          "name": "book_id",
          "type": "uint256"
        }
      ],
      "name": "returnBook",
      "outputs": [
        {
          "internalType": "bool",
          "name": "",
          "type": "bool"
        }
      ],
      "payable": false,
      "stateMutability": "nonpayable",
      "type": "function"
    }
  ],
  "bytecode": "0x60806040523480156200001157600080fd5b506040516200182b3803806200182b8339818101604052620000379190810190620001d8565b6040518060400160405280600881526020017f54657374204c69620000000000000000000000000000000000000000000000008152506003908051906020019062000084929190620000cd565b5033600160006101000a81548173ffffffffffffffffffffffffffffffffffffffff021916908373ffffffffffffffffffffffffffffffffffffffff16021790555050620002ae565b828054600181600116156101000203166002900490600052602060002090601f016020900481019282601f106200011057805160ff191683800117855562000141565b8280016001018555821562000141579182015b828111156200014057825182559160200191906001019062000123565b5b50905062000150919062000154565b5090565b6200017991905b80821115620001755760008160009055506001016200015b565b5090565b90565b600082601f8301126200018e57600080fd5b8151620001a56200019f826200024b565b6200021d565b91508082526020830160208301858383011115620001c257600080fd5b620001cf83828462000278565b50505092915050565b600060208284031215620001eb57600080fd5b600082015167ffffffffffffffff8111156200020657600080fd5b62000214848285016200017c565b91505092915050565b6000604051905081810181811067ffffffffffffffff821117156200024157600080fd5b8060405250919050565b600067ffffffffffffffff8211156200026357600080fd5b601f19601f8301169050602081019050919050565b60005b83811015620002985780820151818401526020810190506200027b565b83811115620002a8576000848401525b50505050565b61156d80620002be6000396000f3fe60806040526004361061007b5760003560e01c8063ac7d0ee91161004e578063ac7d0ee914610148578063ca5140c914610185578063e0ff5b8b146101c2578063f851a440146101ff5761007b565b806306fdde03146100805780633fff74be146100ab57806372e23267146100d657806396615ad214610106575b600080fd5b34801561008c57600080fd5b5061009561022a565b6040516100a29190611272565b60405180910390f35b3480156100b757600080fd5b506100c06102c8565b6040516100cd9190611356565b60405180910390f35b6100f060048036036100eb9190810190610ed0565b6102d5565b6040516100fd9190611257565b60405180910390f35b34801561011257600080fd5b5061012d60048036036101289190810190610ed0565b610530565b60405161013f96959493929190611371565b60405180910390f35b34801561015457600080fd5b5061016f600480360361016a9190810190610e64565b6106e9565b60405161017c9190611257565b60405180910390f35b34801561019157600080fd5b506101ac60048036036101a79190810190610ed0565b610913565b6040516101b99190611257565b60405180910390f35b3480156101ce57600080fd5b506101e960048036036101e49190810190610ed0565b610a89565b6040516101f69190611334565b60405180910390f35b34801561020b57600080fd5b50610214610cce565b604051610221919061123c565b60405180910390f35b60038054600181600116156101000203166002900480601f0160208091040260200160405190810160405280929190818152602001828054600181600116156101000203166002900480156102c05780601f10610295576101008083540402835291602001916102c0565b820191906000526020600020905b8154815290600101906020018083116102a357829003601f168201915b505050505081565b6000600280549050905090565b600080600283815481106102e557fe5b9060005260206000209060060201600101541415610338576040517f08c379a000000000000000000000000000000000000000000000000000000000815260040161032f906112f4565b60405180910390fd5b600073ffffffffffffffffffffffffffffffffffffffff166002838154811061035d57fe5b906000526020600020906006020160050160009054906101000a900473ffffffffffffffffffffffffffffffffffffffff1673ffffffffffffffffffffffffffffffffffffffff16146103e5576040517f08c379a00000000000000000000000000000000000000000000000000000000081526004016103dc90611314565b60405180910390fd5b600282815481106103f257fe5b9060005260206000209060060201600101543414610445576040517f08c379a000000000000000000000000000000000000000000000000000000000815260040161043c906112d4565b60405180910390fd5b6002828154811061045257fe5b906000526020600020906006020160040160009054906101000a900473ffffffffffffffffffffffffffffffffffffffff1673ffffffffffffffffffffffffffffffffffffffff166108fc349081150290604051600060405180830381858888f193505050501580156104c9573d6000803e3d6000fd5b5033600283815481106104d857fe5b906000526020600020906006020160050160006101000a81548173ffffffffffffffffffffffffffffffffffffffff021916908373ffffffffffffffffffffffffffffffffffffffff16021790555060019050919050565b6002818154811061053d57fe5b9060005260206000209060060201600091509050806000015490806001015490806002018054600181600116156101000203166002900480601f0160208091040260200160405190810160405280929190818152602001828054600181600116156101000203166002900480156105f55780601f106105ca576101008083540402835291602001916105f5565b820191906000526020600020905b8154815290600101906020018083116105d857829003601f168201915b505050505090806003018054600181600116156101000203166002900480601f0160208091040260200160405190810160405280929190818152602001828054600181600116156101000203166002900480156106935780601f1061066857610100808354040283529160200191610693565b820191906000526020600020905b81548152906001019060200180831161067657829003601f168201915b5050505050908060040160009054906101000a900473ffffffffffffffffffffffffffffffffffffffff16908060050160009054906101000a900473ffffffffffffffffffffffffffffffffffffffff16905086565b6000600160009054906101000a900473ffffffffffffffffffffffffffffffffffffffff1673ffffffffffffffffffffffffffffffffffffffff163373ffffffffffffffffffffffffffffffffffffffff161461077b576040517f08c379a0000000000000000000000000000000000000000000000000000000008152600401610772906112b4565b60405180910390fd5b610783610cf4565b6040518060c00160405280600454815260200167016345785d8a000081526020018581526020018481526020013373ffffffffffffffffffffffffffffffffffffffff168152602001600073ffffffffffffffffffffffffffffffffffffffff1681525090506002819080600181540180825580915050906001820390600052602060002090600602016000909192909190915060008201518160000155602082015181600101556040820151816002019080519060200190610847929190610d56565b506060820151816003019080519060200190610864929190610d56565b5060808201518160040160006101000a81548173ffffffffffffffffffffffffffffffffffffffff021916908373ffffffffffffffffffffffffffffffffffffffff16021790555060a08201518160050160006101000a81548173ffffffffffffffffffffffffffffffffffffffff021916908373ffffffffffffffffffffffffffffffffffffffff160217905550505050600460008154809291906001019190505550600191505092915050565b6000806002838154811061092357fe5b9060005260206000209060060201600101541415610976576040517f08c379a000000000000000000000000000000000000000000000000000000000815260040161096d906112f4565b60405180910390fd5b3373ffffffffffffffffffffffffffffffffffffffff166002838154811061099a57fe5b906000526020600020906006020160050160009054906101000a900473ffffffffffffffffffffffffffffffffffffffff1673ffffffffffffffffffffffffffffffffffffffff1614610a22576040517f08c379a0000000000000000000000000000000000000000000000000000000008152600401610a1990611294565b60405180910390fd5b600060028381548110610a3157fe5b906000526020600020906006020160050160006101000a81548173ffffffffffffffffffffffffffffffffffffffff021916908373ffffffffffffffffffffffffffffffffffffffff16021790555060019050919050565b610a91610cf4565b610a99610cf4565b60028381548110610aa657fe5b90600052602060002090600602016040518060c00160405290816000820154815260200160018201548152602001600282018054600181600116156101000203166002900480601f016020809104026020016040519081016040528092919081815260200182805460018160011615610100020316600290048015610b6c5780601f10610b4157610100808354040283529160200191610b6c565b820191906000526020600020905b815481529060010190602001808311610b4f57829003601f168201915b50505050508152602001600382018054600181600116156101000203166002900480601f016020809104026020016040519081016040528092919081815260200182805460018160011615610100020316600290048015610c0e5780601f10610be357610100808354040283529160200191610c0e565b820191906000526020600020905b815481529060010190602001808311610bf157829003601f168201915b505050505081526020016004820160009054906101000a900473ffffffffffffffffffffffffffffffffffffffff1673ffffffffffffffffffffffffffffffffffffffff1673ffffffffffffffffffffffffffffffffffffffff1681526020016005820160009054906101000a900473ffffffffffffffffffffffffffffffffffffffff1673ffffffffffffffffffffffffffffffffffffffff1673ffffffffffffffffffffffffffffffffffffffff1681525050905080915050919050565b600160009054906101000a900473ffffffffffffffffffffffffffffffffffffffff1681565b6040518060c0016040528060008152602001600081526020016060815260200160608152602001600073ffffffffffffffffffffffffffffffffffffffff168152602001600073ffffffffffffffffffffffffffffffffffffffff1681525090565b828054600181600116156101000203166002900490600052602060002090601f016020900481019282601f10610d9757805160ff1916838001178555610dc5565b82800160010185558215610dc5579182015b82811115610dc4578251825591602001919060010190610da9565b5b509050610dd29190610dd6565b5090565b610df891905b80821115610df4576000816000905550600101610ddc565b5090565b90565b600082601f830112610e0c57600080fd5b8135610e1f610e1a8261140d565b6113e0565b91508082526020830160208301858383011115610e3b57600080fd5b610e468382846114c0565b50505092915050565b600081359050610e5e81611513565b92915050565b60008060408385031215610e7757600080fd5b600083013567ffffffffffffffff811115610e9157600080fd5b610e9d85828601610dfb565b925050602083013567ffffffffffffffff811115610eba57600080fd5b610ec685828601610dfb565b9150509250929050565b600060208284031215610ee257600080fd5b6000610ef084828501610e4f565b91505092915050565b610f0281611478565b82525050565b610f1181611478565b82525050565b610f2081611466565b82525050565b610f2f81611466565b82525050565b610f3e8161148a565b82525050565b6000610f4f82611439565b610f598185611444565b9350610f698185602086016114cf565b610f7281611502565b840191505092915050565b6000610f8882611439565b610f928185611455565b9350610fa28185602086016114cf565b610fab81611502565b840191505092915050565b6000610fc3603083611455565b91507f53656e64696e67206164647265737320646f6573206e6f742063757272656e7460008301527f6c7920686176652074686520626f6f6b000000000000000000000000000000006020830152604082019050919050565b6000611029604b83611455565b91507f536f6d656f6e65206f74686572207468616e207468652061646d696e2074726960008301527f656420746f207075742061206164642061206e657720626f6f6b20746f20746860208301527f6520696e76656e746f72790000000000000000000000000000000000000000006040830152606082019050919050565b60006110b5603283611455565b91507f53656e64657220646f6573206e6f74206861766520656e6f756768206d6f6e6560008301527f7920746f206c6f616e2074686520626f6f6b00000000000000000000000000006020830152604082019050919050565b600061111b602083611455565b91507f426f6f6b20646f6573206e6f7420657869737420696e20696e76656e746f72796000830152602082019050919050565b600061115b601a83611455565b91507f426f6f6b206973206e6f7420616c7265616479206c6f616e65640000000000006000830152602082019050919050565b600060c0830160008301516111a6600086018261121e565b5060208301516111b9602086018261121e565b50604083015184820360408601526111d18282610f44565b915050606083015184820360608601526111eb8282610f44565b91505060808301516112006080860182610ef9565b5060a083015161121360a0860182610f17565b508091505092915050565b611227816114b6565b82525050565b611236816114b6565b82525050565b60006020820190506112516000830184610f26565b92915050565b600060208201905061126c6000830184610f35565b92915050565b6000602082019050818103600083015261128c8184610f7d565b905092915050565b600060208201905081810360008301526112ad81610fb6565b9050919050565b600060208201905081810360008301526112cd8161101c565b9050919050565b600060208201905081810360008301526112ed816110a8565b9050919050565b6000602082019050818103600083015261130d8161110e565b9050919050565b6000602082019050818103600083015261132d8161114e565b9050919050565b6000602082019050818103600083015261134e818461118e565b905092915050565b600060208201905061136b600083018461122d565b92915050565b600060c082019050611386600083018961122d565b611393602083018861122d565b81810360408301526113a58187610f7d565b905081810360608301526113b98186610f7d565b90506113c86080830185610f08565b6113d560a0830184610f26565b979650505050505050565b6000604051905081810181811067ffffffffffffffff8211171561140357600080fd5b8060405250919050565b600067ffffffffffffffff82111561142457600080fd5b601f19601f8301169050602081019050919050565b600081519050919050565b600082825260208201905092915050565b600082825260208201905092915050565b600061147182611496565b9050919050565b600061148382611496565b9050919050565b60008115159050919050565b600073ffffffffffffffffffffffffffffffffffffffff82169050919050565b6000819050919050565b82818337600083830152505050565b60005b838110156114ed5780820151818401526020810190506114d2565b838111156114fc576000848401525b50505050565b6000601f19601f8301169050919050565b61151c816114b6565b811461152757600080fd5b5056fea365627a7a72315820846ec83cb2f2cd660e17a5bf9136399c436de1db3bcdcddf0a0fb74efc69363a6c6578706572696d656e74616cf564736f6c63430005100040",
  "source": "pragma solidity >=0.4.21 <0.7.0;\npragma experimental ABIEncoderV2;\n\ncontract Library{\n\nstruct Book{\n    uint book_id;\n    uint price;\n    string title;\n    string author_name;\n    address payable owner;\n    address customer;\n}\n\nmapping (address => Book) loanedBooks;\naddress public admin;\nBook[] public bookInventory;\nstring public name;\nuint private numberOfBooks;\n\nconstructor(string memory _name) public {\n    name = \"Test Lib\";\n    admin = msg.sender;\n}\n\nfunction newBookInInventory(string memory title, string memory author_name) public returns (bool) {\n    require(msg.sender == admin, \"Someone other than the admin tried to put a add a new book to the inventory\");\n    Book memory newBook = Book({book_id:numberOfBooks, price: 100000000000000000, title:title, author_name:author_name, owner:msg.sender, customer:address(0)});\n    bookInventory.push(newBook);\n    numberOfBooks++;\n    return true;\n}\n\nfunction getBook(uint i) public view returns (Book memory){\n    Book memory book = bookInventory[i];\n    return book;\n}\n\nfunction getInventorySize() public view returns (uint){\n    return bookInventory.length;\n}\n\nfunction loanBook(uint book_id) public payable returns (bool){\n    require(bookInventory[book_id].price != 0, \"Book does not exist in inventory\");\n    require(bookInventory[book_id].customer == address(0), \"Book is not already loaned\");\n    require(msg.value == bookInventory[book_id].price, \"Sender does not have enough money to loan the book\");\n    bookInventory[book_id].owner.transfer(msg.value);\n    bookInventory[book_id].customer = msg.sender;\n    return true;\n}\n\nfunction returnBook(uint book_id) public returns (bool){\n    require(bookInventory[book_id].price != 0, \"Book does not exist in inventory\");\n    require(bookInventory[book_id].customer == msg.sender, \"Sending address does not currently have the book\");\n    bookInventory[book_id].customer = address(0);\n    return true;\n}\n}",
  "sourcePath": "E:\\BP\\chocolatey.0.10.15\\tools\\contracts\\Library.sol",
  "compiler": {
    "name": "solc",
    "version": "0.5.16+commit.9c3226ce.Emscripten.clang"
  },
  "schemaVersion": "3.2.2",
  "updatedAt": "2020-07-15T17:05:15.572Z",
  "devdoc": {
    "methods": {}
  },
  "userdoc": {
    "methods": {}
  }
}